{
  "contractName": "FraudDetection",
  "abi": [
    {
      "anonymous": false,
      "inputs": [
        {
          "indexed": false,
          "internalType": "uint256",
          "name": "transactionId",
          "type": "uint256"
        },
        {
          "indexed": false,
          "internalType": "uint256",
          "name": "typeIndexed",
          "type": "uint256"
        },
        {
          "indexed": false,
          "internalType": "uint256",
          "name": "amount",
          "type": "uint256"
        },
        {
          "indexed": false,
          "internalType": "uint256",
          "name": "oldbalanceOrg",
          "type": "uint256"
        },
        {
          "indexed": false,
          "internalType": "uint256",
          "name": "newbalanceOrig",
          "type": "uint256"
        },
        {
          "indexed": false,
          "internalType": "uint256",
          "name": "oldbalanceDest",
          "type": "uint256"
        },
        {
          "indexed": false,
          "internalType": "uint256",
          "name": "newbalanceDest",
          "type": "uint256"
        },
        {
          "indexed": false,
          "internalType": "bool",
          "name": "isFraud",
          "type": "bool"
        },
        {
          "indexed": false,
          "internalType": "bool",
          "name": "isLogged",
          "type": "bool"
        }
      ],
      "name": "TransactionRecorded",
      "type": "event"
    },
    {
      "inputs": [
        {
          "internalType": "uint256",
          "name": "",
          "type": "uint256"
        }
      ],
      "name": "transactions",
      "outputs": [
        {
          "internalType": "uint256",
          "name": "transactionId",
          "type": "uint256"
        },
        {
          "internalType": "uint256",
          "name": "typeIndexed",
          "type": "uint256"
        },
        {
          "internalType": "uint256",
          "name": "amount",
          "type": "uint256"
        },
        {
          "internalType": "uint256",
          "name": "oldbalanceOrg",
          "type": "uint256"
        },
        {
          "internalType": "uint256",
          "name": "newbalanceOrig",
          "type": "uint256"
        },
        {
          "internalType": "uint256",
          "name": "oldbalanceDest",
          "type": "uint256"
        },
        {
          "internalType": "uint256",
          "name": "newbalanceDest",
          "type": "uint256"
        },
        {
          "internalType": "uint256",
          "name": "errorBalanceOrig",
          "type": "uint256"
        },
        {
          "internalType": "uint256",
          "name": "errorBalanceDest",
          "type": "uint256"
        },
        {
          "internalType": "bool",
          "name": "isFraud",
          "type": "bool"
        },
        {
          "internalType": "bool",
          "name": "isLogged",
          "type": "bool"
        }
      ],
      "stateMutability": "view",
      "type": "function"
    },
    {
      "inputs": [
        {
          "internalType": "uint256",
          "name": "transactionId",
          "type": "uint256"
        },
        {
          "internalType": "uint256",
          "name": "typeIndexed",
          "type": "uint256"
        },
        {
          "internalType": "uint256",
          "name": "amount",
          "type": "uint256"
        },
        {
          "internalType": "uint256",
          "name": "oldbalanceOrg",
          "type": "uint256"
        },
        {
          "internalType": "uint256",
          "name": "newbalanceOrig",
          "type": "uint256"
        },
        {
          "internalType": "uint256",
          "name": "oldbalanceDest",
          "type": "uint256"
        },
        {
          "internalType": "uint256",
          "name": "newbalanceDest",
          "type": "uint256"
        },
        {
          "internalType": "uint256",
          "name": "errorBalanceOrig",
          "type": "uint256"
        },
        {
          "internalType": "uint256",
          "name": "errorBalanceDest",
          "type": "uint256"
        },
        {
          "internalType": "bool",
          "name": "isLogged",
          "type": "bool"
        },
        {
          "internalType": "bool",
          "name": "isFraud",
          "type": "bool"
        }
      ],
      "name": "recordTransaction",
      "outputs": [],
      "stateMutability": "nonpayable",
      "type": "function"
    }
  ],
  "bytecode": "0x608060405234801561001057600080fd5b5061056e806100206000396000f3fe608060405234801561001057600080fd5b50600436106100365760003560e01c80632595d83b1461003b5780639ace38c214610057575b600080fd5b610055600480360381019061005091906102ae565b610091565b005b610071600480360381019061006c9190610285565b6101e7565b6040516100889b9a99989796959493929190610449565b60405180910390f35b6040518061016001604052808c81526020018b81526020018a815260200189815260200188815260200187815260200186815260200185815260200184815260200182151581526020018315158152506000808d8152602001908152602001600020600082015181600001556020820151816001015560408201518160020155606082015181600301556080820151816004015560a0820151816005015560c0820151816006015560e0820151816007015561010082015181600801556101208201518160090160006101000a81548160ff0219169083151502179055506101408201518160090160016101000a81548160ff0219169083151502179055509050507f9108e6d6a4c53c31c4cf0082fbcdc5590ddd21e51d37a4003deb22ce1b437bc98b8b8b8b8b8b8b888a6040516101d2999897969594939291906103bc565b60405180910390a15050505050505050505050565b60006020528060005260406000206000915090508060000154908060010154908060020154908060030154908060040154908060050154908060060154908060070154908060080154908060090160009054906101000a900460ff16908060090160019054906101000a900460ff1690508b565b60008135905061026a8161050a565b92915050565b60008135905061027f81610521565b92915050565b60006020828403121561029757600080fd5b60006102a584828501610270565b91505092915050565b60008060008060008060008060008060006101608c8e0312156102d057600080fd5b60006102de8e828f01610270565b9b505060206102ef8e828f01610270565b9a505060406103008e828f01610270565b99505060606103118e828f01610270565b98505060806103228e828f01610270565b97505060a06103338e828f01610270565b96505060c06103448e828f01610270565b95505060e06103558e828f01610270565b9450506101006103678e828f01610270565b9350506101206103798e828f0161025b565b92505061014061038b8e828f0161025b565b9150509295989b509295989b9093969950565b6103a7816104f4565b82525050565b6103b681610500565b82525050565b6000610120820190506103d2600083018c6103ad565b6103df602083018b6103ad565b6103ec604083018a6103ad565b6103f960608301896103ad565b61040660808301886103ad565b61041360a08301876103ad565b61042060c08301866103ad565b61042d60e083018561039e565b61043b61010083018461039e565b9a9950505050505050505050565b60006101608201905061045f600083018e6103ad565b61046c602083018d6103ad565b610479604083018c6103ad565b610486606083018b6103ad565b610493608083018a6103ad565b6104a060a08301896103ad565b6104ad60c08301886103ad565b6104ba60e08301876103ad565b6104c86101008301866103ad565b6104d661012083018561039e565b6104e461014083018461039e565b9c9b505050505050505050505050565b60008115159050919050565b6000819050919050565b610513816104f4565b811461051e57600080fd5b50565b61052a81610500565b811461053557600080fd5b5056fea2646970667358221220e2a2a4fc6ca616c9a3bbec797988ccb9f049ec3d2b04be6817b2a74d5704202d64736f6c63430008000033",
  "immutableReferences": {},
  "source": "// SPDX-License-Identifier: MIT \r\n// Solidity version\r\npragma solidity ^0.8.0;\r\n\r\ncontract FraudDetection {\r\n    struct Transaction {\r\n        uint256 transactionId;\r\n        uint256 typeIndexed;  // Type of transaction (changed from string to uint256)\r\n        uint256 amount;        // Transaction amount\r\n        uint256 oldbalanceOrg; // Previous balance of the origin account\r\n        uint256 newbalanceOrig; // New balance of the origin account\r\n        uint256 oldbalanceDest; // Previous balance of the destination account\r\n        uint256 newbalanceDest; // New balance of the destination account\r\n        uint256 errorBalanceOrig; // Error balance of the origin account\r\n        uint256 errorBalanceDest; // Error balance of the destination account\r\n        bool isFraud;         // Indicates if the transaction is fraudulent\r\n        bool isLogged;        // Indicates if the transaction is logged\r\n    }\r\n\r\n    // Mapping from transaction ID to Transaction struct\r\n    mapping(uint256 => Transaction) public transactions;\r\n\r\n    // Event for logging transaction recording\r\n    event TransactionRecorded(\r\n        uint256 transactionId,\r\n        uint256 typeIndexed,\r\n        uint256 amount,\r\n        uint256 oldbalanceOrg,\r\n        uint256 newbalanceOrig,\r\n        uint256 oldbalanceDest,\r\n        uint256 newbalanceDest,\r\n        bool isFraud,\r\n        bool isLogged\r\n    );\r\n\r\n    // Function to record a transaction\r\n    function recordTransaction(\r\n        uint256 transactionId, \r\n        uint256 typeIndexed, // Now accepting uint256 type for transaction type\r\n        uint256 amount, \r\n        uint256 oldbalanceOrg, // Changed from string to uint256\r\n        uint256 newbalanceOrig, \r\n        uint256 oldbalanceDest, // Changed from string to uint256\r\n        uint256 newbalanceDest, \r\n        uint256 errorBalanceOrig, // Changed from string to uint256\r\n        uint256 errorBalanceDest, \r\n        bool isLogged, \r\n        bool isFraud // Renamed from isFlagged to isFraud for clarity\r\n    ) public {\r\n        // Create a new Transaction struct and store it in the mapping\r\n        transactions[transactionId] = Transaction(\r\n            transactionId,\r\n            typeIndexed,\r\n            amount,\r\n            oldbalanceOrg,\r\n            newbalanceOrig,\r\n            oldbalanceDest,\r\n            newbalanceDest,\r\n            errorBalanceOrig,\r\n            errorBalanceDest,\r\n            isFraud,\r\n            isLogged\r\n        );\r\n\r\n        // Emit an event for logging purposes\r\n        emit TransactionRecorded(\r\n            transactionId,\r\n            typeIndexed,\r\n            amount,\r\n            oldbalanceOrg,\r\n            newbalanceOrig,\r\n            oldbalanceDest,\r\n            newbalanceDest,\r\n            isFraud,\r\n            isLogged\r\n        );\r\n    }\r\n}\r\n",
  "sourcePath": "C:\\Users\\Admin\\fraud-detection-blockchain\\contracts\\TransactionLogger.sol",
  "compiler": {
    "name": "solc",
    "version": "0.8.0+commit.c7dfd78e.Emscripten.clang"
  },
  "schemaVersion": "3.4.16",
  "updatedAt": "2024-10-17T13:53:23.527Z",
  "devdoc": {
    "kind": "dev",
    "methods": {},
    "version": 1
  },
  "userdoc": {
    "kind": "user",
    "methods": {},
    "version": 1
  }
}