{
  "contractName": "TransactionLogger",
  "abi": [
    {
      "anonymous": false,
      "inputs": [
        {
          "indexed": false,
          "internalType": "uint256",
          "name": "transactionId",
          "type": "uint256"
        },
        {
          "indexed": false,
          "internalType": "bool",
          "name": "isFraud",
          "type": "bool"
        },
        {
          "indexed": false,
          "internalType": "bool",
          "name": "isFlaggedFraud",
          "type": "bool"
        }
      ],
      "name": "TransactionRecorded",
      "type": "event"
    },
    {
      "inputs": [
        {
          "internalType": "uint256",
          "name": "",
          "type": "uint256"
        }
      ],
      "name": "transactions",
      "outputs": [
        {
          "internalType": "uint256",
          "name": "step",
          "type": "uint256"
        },
        {
          "internalType": "string",
          "name": "txType",
          "type": "string"
        },
        {
          "internalType": "uint256",
          "name": "amount",
          "type": "uint256"
        },
        {
          "internalType": "string",
          "name": "nameOrig",
          "type": "string"
        },
        {
          "internalType": "uint256",
          "name": "oldbalanceOrg",
          "type": "uint256"
        },
        {
          "internalType": "uint256",
          "name": "newbalanceOrig",
          "type": "uint256"
        },
        {
          "internalType": "string",
          "name": "nameDest",
          "type": "string"
        },
        {
          "internalType": "uint256",
          "name": "oldbalanceDest",
          "type": "uint256"
        },
        {
          "internalType": "uint256",
          "name": "newbalanceDest",
          "type": "uint256"
        },
        {
          "internalType": "bool",
          "name": "isFraud",
          "type": "bool"
        },
        {
          "internalType": "bool",
          "name": "isFlaggedFraud",
          "type": "bool"
        },
        {
          "internalType": "uint256",
          "name": "timestamp",
          "type": "uint256"
        }
      ],
      "stateMutability": "view",
      "type": "function",
      "constant": true
    },
    {
      "inputs": [
        {
          "internalType": "uint256",
          "name": "_step",
          "type": "uint256"
        },
        {
          "internalType": "string",
          "name": "_txType",
          "type": "string"
        },
        {
          "internalType": "uint256",
          "name": "_amount",
          "type": "uint256"
        },
        {
          "internalType": "string",
          "name": "_nameOrig",
          "type": "string"
        },
        {
          "internalType": "uint256",
          "name": "_oldbalanceOrg",
          "type": "uint256"
        },
        {
          "internalType": "uint256",
          "name": "_newbalanceOrig",
          "type": "uint256"
        },
        {
          "internalType": "string",
          "name": "_nameDest",
          "type": "string"
        },
        {
          "internalType": "uint256",
          "name": "_oldbalanceDest",
          "type": "uint256"
        },
        {
          "internalType": "uint256",
          "name": "_newbalanceDest",
          "type": "uint256"
        },
        {
          "internalType": "bool",
          "name": "_isFraud",
          "type": "bool"
        },
        {
          "internalType": "bool",
          "name": "_isFlaggedFraud",
          "type": "bool"
        }
      ],
      "name": "recordTransaction",
      "outputs": [
        {
          "internalType": "uint256",
          "name": "",
          "type": "uint256"
        }
      ],
      "stateMutability": "nonpayable",
      "type": "function"
    },
    {
      "inputs": [
        {
          "internalType": "uint256",
          "name": "_transactionId",
          "type": "uint256"
        }
      ],
      "name": "getTransaction",
      "outputs": [
        {
          "components": [
            {
              "internalType": "uint256",
              "name": "step",
              "type": "uint256"
            },
            {
              "internalType": "string",
              "name": "txType",
              "type": "string"
            },
            {
              "internalType": "uint256",
              "name": "amount",
              "type": "uint256"
            },
            {
              "internalType": "string",
              "name": "nameOrig",
              "type": "string"
            },
            {
              "internalType": "uint256",
              "name": "oldbalanceOrg",
              "type": "uint256"
            },
            {
              "internalType": "uint256",
              "name": "newbalanceOrig",
              "type": "uint256"
            },
            {
              "internalType": "string",
              "name": "nameDest",
              "type": "string"
            },
            {
              "internalType": "uint256",
              "name": "oldbalanceDest",
              "type": "uint256"
            },
            {
              "internalType": "uint256",
              "name": "newbalanceDest",
              "type": "uint256"
            },
            {
              "internalType": "bool",
              "name": "isFraud",
              "type": "bool"
            },
            {
              "internalType": "bool",
              "name": "isFlaggedFraud",
              "type": "bool"
            },
            {
              "internalType": "uint256",
              "name": "timestamp",
              "type": "uint256"
            }
          ],
          "internalType": "struct TransactionLogger.Transaction",
          "name": "",
          "type": "tuple"
        }
      ],
      "stateMutability": "view",
      "type": "function",
      "constant": true
    },
    {
      "inputs": [],
      "name": "getAllTransactions",
      "outputs": [
        {
          "components": [
            {
              "internalType": "uint256",
              "name": "step",
              "type": "uint256"
            },
            {
              "internalType": "string",
              "name": "txType",
              "type": "string"
            },
            {
              "internalType": "uint256",
              "name": "amount",
              "type": "uint256"
            },
            {
              "internalType": "string",
              "name": "nameOrig",
              "type": "string"
            },
            {
              "internalType": "uint256",
              "name": "oldbalanceOrg",
              "type": "uint256"
            },
            {
              "internalType": "uint256",
              "name": "newbalanceOrig",
              "type": "uint256"
            },
            {
              "internalType": "string",
              "name": "nameDest",
              "type": "string"
            },
            {
              "internalType": "uint256",
              "name": "oldbalanceDest",
              "type": "uint256"
            },
            {
              "internalType": "uint256",
              "name": "newbalanceDest",
              "type": "uint256"
            },
            {
              "internalType": "bool",
              "name": "isFraud",
              "type": "bool"
            },
            {
              "internalType": "bool",
              "name": "isFlaggedFraud",
              "type": "bool"
            },
            {
              "internalType": "uint256",
              "name": "timestamp",
              "type": "uint256"
            }
          ],
          "internalType": "struct TransactionLogger.Transaction[]",
          "name": "",
          "type": "tuple[]"
        }
      ],
      "stateMutability": "view",
      "type": "function",
      "constant": true
    }
  ],
  "bytecode": "0x608060405234801561001057600080fd5b50611505806100206000396000f3fe608060405234801561001057600080fd5b506004361061004c5760003560e01c806327506f531461005157806333ea3dc81461006f5780639ace38c21461009f578063e86d6daa146100da575b600080fd5b61005961010a565b60405161006691906110f9565b60405180910390f35b61008960048036038101906100849190610bfd565b61039c565b604051610096919061113b565b60405180910390f35b6100b960048036038101906100b49190610bfd565b610678565b6040516100d19c9b9a999897969594939291906111af565b60405180910390f35b6100f460048036038101906100ef9190610c26565b61089a565b604051610101919061115d565b60405180910390f35b60606000805480602002602001604051908101604052809291908181526020016000905b8282101561039357838290600052602060002090600b0201604051806101800160405290816000820154815260200160018201805461016c906113d1565b80601f0160208091040260200160405190810160405280929190818152602001828054610198906113d1565b80156101e55780601f106101ba576101008083540402835291602001916101e5565b820191906000526020600020905b8154815290600101906020018083116101c857829003601f168201915b5050505050815260200160028201548152602001600382018054610208906113d1565b80601f0160208091040260200160405190810160405280929190818152602001828054610234906113d1565b80156102815780601f1061025657610100808354040283529160200191610281565b820191906000526020600020905b81548152906001019060200180831161026457829003601f168201915b5050505050815260200160048201548152602001600582015481526020016006820180546102ae906113d1565b80601f01602080910402602001604051908101604052809291908181526020018280546102da906113d1565b80156103275780601f106102fc57610100808354040283529160200191610327565b820191906000526020600020905b81548152906001019060200180831161030a57829003601f168201915b5050505050815260200160078201548152602001600882015481526020016009820160009054906101000a900460ff161515151581526020016009820160019054906101000a900460ff16151515158152602001600a820154815250508152602001906001019061012e565b50505050905090565b6103a4610a63565b60008054905082106103eb576040517f08c379a00000000000000000000000000000000000000000000000000000000081526004016103e29061111b565b60405180910390fd5b60008281548110610425577f4e487b7100000000000000000000000000000000000000000000000000000000600052603260045260246000fd5b90600052602060002090600b02016040518061018001604052908160008201548152602001600182018054610459906113d1565b80601f0160208091040260200160405190810160405280929190818152602001828054610485906113d1565b80156104d25780601f106104a7576101008083540402835291602001916104d2565b820191906000526020600020905b8154815290600101906020018083116104b557829003601f168201915b50505050508152602001600282015481526020016003820180546104f5906113d1565b80601f0160208091040260200160405190810160405280929190818152602001828054610521906113d1565b801561056e5780601f106105435761010080835404028352916020019161056e565b820191906000526020600020905b81548152906001019060200180831161055157829003601f168201915b50505050508152602001600482015481526020016005820154815260200160068201805461059b906113d1565b80601f01602080910402602001604051908101604052809291908181526020018280546105c7906113d1565b80156106145780601f106105e957610100808354040283529160200191610614565b820191906000526020600020905b8154815290600101906020018083116105f757829003601f168201915b5050505050815260200160078201548152602001600882015481526020016009820160009054906101000a900460ff161515151581526020016009820160019054906101000a900460ff16151515158152602001600a820154815250509050919050565b6000818154811061068857600080fd5b90600052602060002090600b02016000915090508060000154908060010180546106b1906113d1565b80601f01602080910402602001604051908101604052809291908181526020018280546106dd906113d1565b801561072a5780601f106106ff5761010080835404028352916020019161072a565b820191906000526020600020905b81548152906001019060200180831161070d57829003601f168201915b505050505090806002015490806003018054610745906113d1565b80601f0160208091040260200160405190810160405280929190818152602001828054610771906113d1565b80156107be5780601f10610793576101008083540402835291602001916107be565b820191906000526020600020905b8154815290600101906020018083116107a157829003601f168201915b5050505050908060040154908060050154908060060180546107df906113d1565b80601f016020809104026020016040519081016040528092919081815260200182805461080b906113d1565b80156108585780601f1061082d57610100808354040283529160200191610858565b820191906000526020600020905b81548152906001019060200180831161083b57829003601f168201915b5050505050908060070154908060080154908060090160009054906101000a900460ff16908060090160019054906101000a900460ff169080600a015490508c565b6000806040518061018001604052808e81526020018d81526020018c81526020018b81526020018a8152602001898152602001888152602001878152602001868152602001851515815260200184151581526020014281525090806001815401808255809150506001900390600052602060002090600b0201600090919091909150600082015181600001556020820151816001019080519060200190610942929190610ac8565b50604082015181600201556060820151816003019080519060200190610969929190610ac8565b506080820151816004015560a0820151816005015560c082015181600601908051906020019061099a929190610ac8565b5060e0820151816007015561010082015181600801556101208201518160090160006101000a81548160ff0219169083151502179055506101408201518160090160016101000a81548160ff02191690831515021790555061016082015181600a0155505060006001600080549050610a139190611345565b90507f33314b44c721944ec001d16c0046a55c9f3b76e478262448d76519a6664d5416818585604051610a4893929190611178565b60405180910390a1809150509b9a5050505050505050505050565b604051806101800160405280600081526020016060815260200160008152602001606081526020016000815260200160008152602001606081526020016000815260200160008152602001600015158152602001600015158152602001600081525090565b828054610ad4906113d1565b90600052602060002090601f016020900481019282610af65760008555610b3d565b82601f10610b0f57805160ff1916838001178555610b3d565b82800160010185558215610b3d579182015b82811115610b3c578251825591602001919060010190610b21565b5b509050610b4a9190610b4e565b5090565b5b80821115610b67576000816000905550600101610b4f565b5090565b6000610b7e610b79846112af565b61127e565b905082815260208101848484011115610b9657600080fd5b610ba184828561138f565b509392505050565b600081359050610bb8816114a1565b92915050565b600082601f830112610bcf57600080fd5b8135610bdf848260208601610b6b565b91505092915050565b600081359050610bf7816114b8565b92915050565b600060208284031215610c0f57600080fd5b6000610c1d84828501610be8565b91505092915050565b60008060008060008060008060008060006101608c8e031215610c4857600080fd5b6000610c568e828f01610be8565b9b505060208c013567ffffffffffffffff811115610c7357600080fd5b610c7f8e828f01610bbe565b9a50506040610c908e828f01610be8565b99505060608c013567ffffffffffffffff811115610cad57600080fd5b610cb98e828f01610bbe565b9850506080610cca8e828f01610be8565b97505060a0610cdb8e828f01610be8565b96505060c08c013567ffffffffffffffff811115610cf857600080fd5b610d048e828f01610bbe565b95505060e0610d158e828f01610be8565b945050610100610d278e828f01610be8565b935050610120610d398e828f01610ba9565b925050610140610d4b8e828f01610ba9565b9150509295989b509295989b9093969950565b6000610d6a8383610eb7565b905092915050565b6000610d7d826112ef565b610d878185611312565b935083602082028501610d99856112df565b8060005b85811015610dd55784840389528151610db68582610d5e565b9450610dc183611305565b925060208a01995050600181019050610d9d565b50829750879550505050505092915050565b610df081611379565b82525050565b610dff81611379565b82525050565b6000610e10826112fa565b610e1a8185611323565b9350610e2a81856020860161139e565b610e3381611490565b840191505092915050565b6000610e49826112fa565b610e538185611334565b9350610e6381856020860161139e565b610e6c81611490565b840191505092915050565b6000610e84601b83611334565b91507f5472616e73616374696f6e20646f6573206e6f742065786973742e00000000006000830152602082019050919050565b600061018083016000830151610ed060008601826110db565b5060208301518482036020860152610ee88282610e05565b9150506040830151610efd60408601826110db565b5060608301518482036060860152610f158282610e05565b9150506080830151610f2a60808601826110db565b5060a0830151610f3d60a08601826110db565b5060c083015184820360c0860152610f558282610e05565b91505060e0830151610f6a60e08601826110db565b50610100830151610f7f6101008601826110db565b50610120830151610f94610120860182610de7565b50610140830151610fa9610140860182610de7565b50610160830151610fbe6101608601826110db565b508091505092915050565b600061018083016000830151610fe260008601826110db565b5060208301518482036020860152610ffa8282610e05565b915050604083015161100f60408601826110db565b50606083015184820360608601526110278282610e05565b915050608083015161103c60808601826110db565b5060a083015161104f60a08601826110db565b5060c083015184820360c08601526110678282610e05565b91505060e083015161107c60e08601826110db565b506101008301516110916101008601826110db565b506101208301516110a6610120860182610de7565b506101408301516110bb610140860182610de7565b506101608301516110d06101608601826110db565b508091505092915050565b6110e481611385565b82525050565b6110f381611385565b82525050565b600060208201905081810360008301526111138184610d72565b905092915050565b6000602082019050818103600083015261113481610e77565b9050919050565b600060208201905081810360008301526111558184610fc9565b905092915050565b600060208201905061117260008301846110ea565b92915050565b600060608201905061118d60008301866110ea565b61119a6020830185610df6565b6111a76040830184610df6565b949350505050565b6000610180820190506111c5600083018f6110ea565b81810360208301526111d7818e610e3e565b90506111e6604083018d6110ea565b81810360608301526111f8818c610e3e565b9050611207608083018b6110ea565b61121460a083018a6110ea565b81810360c08301526112268189610e3e565b905061123560e08301886110ea565b6112436101008301876110ea565b611251610120830186610df6565b61125f610140830185610df6565b61126d6101608301846110ea565b9d9c50505050505050505050505050565b6000604051905081810181811067ffffffffffffffff821117156112a5576112a4611461565b5b8060405250919050565b600067ffffffffffffffff8211156112ca576112c9611461565b5b601f19601f8301169050602081019050919050565b6000819050602082019050919050565b600081519050919050565b600081519050919050565b6000602082019050919050565b600082825260208201905092915050565b600082825260208201905092915050565b600082825260208201905092915050565b600061135082611385565b915061135b83611385565b92508282101561136e5761136d611403565b5b828203905092915050565b60008115159050919050565b6000819050919050565b82818337600083830152505050565b60005b838110156113bc5780820151818401526020810190506113a1565b838111156113cb576000848401525b50505050565b600060028204905060018216806113e957607f821691505b602082108114156113fd576113fc611432565b5b50919050565b7f4e487b7100000000000000000000000000000000000000000000000000000000600052601160045260246000fd5b7f4e487b7100000000000000000000000000000000000000000000000000000000600052602260045260246000fd5b7f4e487b7100000000000000000000000000000000000000000000000000000000600052604160045260246000fd5b6000601f19601f8301169050919050565b6114aa81611379565b81146114b557600080fd5b50565b6114c181611385565b81146114cc57600080fd5b5056fea264697066735822122052ee3b72c502d33ced66ea2b537ecc8c1e9ffe78d011f110c4c31a92d543949d64736f6c63430008000033",
  "immutableReferences": {},
  "source": "// contracts/TransactionLogger.sol\r\n// SPDX-License-Identifier: MIT\r\npragma solidity ^0.8.0;\r\n\r\ncontract TransactionLogger {\r\n    struct Transaction {\r\n        uint step;\r\n        string txType;\r\n        uint amount;\r\n        string nameOrig;\r\n        uint oldbalanceOrg;\r\n        uint newbalanceOrig;\r\n        string nameDest;\r\n        uint oldbalanceDest;\r\n        uint newbalanceDest;\r\n        bool isFraud;\r\n        bool isFlaggedFraud;\r\n        uint timestamp;\r\n    }\r\n\r\n    Transaction[] public transactions;\r\n\r\n    event TransactionRecorded(uint transactionId, bool isFraud, bool isFlaggedFraud);\r\n\r\n    function recordTransaction(\r\n        uint _step,\r\n        string memory _txType,\r\n        uint _amount,\r\n        string memory _nameOrig,\r\n        uint _oldbalanceOrg,\r\n        uint _newbalanceOrig,\r\n        string memory _nameDest,\r\n        uint _oldbalanceDest,\r\n        uint _newbalanceDest,\r\n        bool _isFraud,\r\n        bool _isFlaggedFraud\r\n    ) public returns (uint) {\r\n        transactions.push(Transaction({\r\n            step: _step,\r\n            txType: _txType,\r\n            amount: _amount,\r\n            nameOrig: _nameOrig,\r\n            oldbalanceOrg: _oldbalanceOrg,\r\n            newbalanceOrig: _newbalanceOrig,\r\n            nameDest: _nameDest,\r\n            oldbalanceDest: _oldbalanceDest,\r\n            newbalanceDest: _newbalanceDest,\r\n            isFraud: _isFraud,\r\n            isFlaggedFraud: _isFlaggedFraud,\r\n            timestamp: block.timestamp\r\n        }));\r\n\r\n        uint transactionId = transactions.length - 1;\r\n        emit TransactionRecorded(transactionId, _isFraud, _isFlaggedFraud);\r\n        return transactionId;\r\n    }\r\n\r\n    function getTransaction(uint _transactionId) public view returns (Transaction memory) {\r\n        require(_transactionId < transactions.length, \"Transaction does not exist.\");\r\n        return transactions[_transactionId];\r\n    }\r\n\r\n    function getAllTransactions() public view returns (Transaction[] memory) {\r\n        return transactions;\r\n    }\r\n}\r\n",
  "sourcePath": "C:\\Users\\Admin\\fraud-detection-blockchain\\contracts\\TransactionLogger.sol",
  "compiler": {
    "name": "solc",
    "version": "0.8.0+commit.c7dfd78e.Emscripten.clang"
  },
  "schemaVersion": "3.4.16",
  "updatedAt": "2024-10-17T13:08:46.125Z",
  "networkType": "ethereum",
  "devdoc": {
    "kind": "dev",
    "methods": {},
    "version": 1
  },
  "userdoc": {
    "kind": "user",
    "methods": {},
    "version": 1
  }
}